:020000040800F2
:10000000482F0020397D0008297C00082B7C00083F
:100010002D7C00082F7C0008317C000800000000C7
:100020000000000000000000000000001540000873
:10003000337C000800000000BD3F0008357C00084C
:10004000637D0008677D00086B7D00086F7D0008F8
:10005000737D0008777D00087B7D00087F7D0008A8
:10006000837D0008877D00088B7D00088F7D000858
:10007000937D0008977D00089B7D00089F7D000808
:10008000A37D0008A77D0008AB7D0008AF7D0008B8
:10009000B37D0008B77D0008BB7D0008BF7D000868
:1000A000C37D0008397C0008C77D0008CB7D0008AF
:1000B0003F7C00080000000000000000CF7D000829
:1000C000D37D00080000000000000000D77D00087C
:1000D00000000000DB7D0008457C000800000000F7
:1000E000DF7D0008E37D0008000000000000000044
:1000F0000000000000000000000000000000000000
:10010000000000000000000000000000E77D000883
:100110000000000000000000EB7D0008EF7D0008FB
:10012000F37D0008F77D0008FB7D0008FF7D0008D7
:10013000037E000800000000000000000000000036
:10014000077E00080B7E00080F7E0008137E000863
:10015000177E00081B7E00081F7E0008237E000813
:10016000277E00082B7E00082F7E0008000000007C
:10017000337E0008377E0008000000000000000009
:100180003B7E00083F7E0008437E00080000000020
:100190000000000080C0E0E06070706060E0C0803F
:1001A000000000000000000000000000000000004F
:1001B000000000000000000000000000000000003F
:1001C000000000000000000000000000000000002F
:1001D00000F8FE0F03010000000000000000010312
:1001E0000F1E7CF0E0000000000000000000000096
:1001F00000000000000000000000000000000000FF
:1002000000000000000000000000000000000000EE
:10021000000F7FFCE0000000000000000000000074
:10022000C0F0F83F1F030000000000000000000CB9
:100230000C0C0C8CCCFC7C7CFCFC00000000000056
:1002400000000000000000000000000000000000AE
:1002500000000001071F3EF8E0C0000000000000A1
:10026000031F3FF8E0C0000000000000000030382D
:100270001C0E0703010000001F1F0000000000000B
:10028000000000000000000000000000000000006E
:10029000000000000000000001030F1E3C70E0C0E1
:1002A000800000000103070E1C3870E0E0C08000F1
:1002B0000000000000008080C0C0C0C0808000003E
:1002C000000000000000000000000000000000002E
:1002D000000000000000000000000000000000011D
:1002E00003070E1C3870E0C0C0800000000103034B
:1002F00007070606060703030101010101030307BF
:100300000E0E1C38F0E0800000000000000000002D
:1003100000000000000000000000000000000000DD
:1003200000000000000000010303070E1C1C3870D1
:1003300070E0C0C08080800000000000000000006D
:10034000008080C0F87F1F00000000000000000057
:10035000000000000000000000000000000000009D
:10036000000000000000000000000000000000008D
:100370000000000101030303030706060606070742
:100380000303030100000000000000000000000063
:10039000000000000000000000000000000000005D
:1003A000000000000000000000000000000000004D
:1003B000000000000000000000000000000000003D
:1003C000000000000000000000000000000000C06D
:1003D000C0E0E0E0E0E0E0E0E0E0E0E0E0E0E0E03D
:1003E000E0E0E0E0E0E0E0E0E0E0E0E0E0E0E0E00D
:1003F000E0E0E0E0E0E0E0E0E0E0E0E0E0E0E0C01D
:10040000000000000000000000000000000000FFED
:10041000FF000000000000000000000000000000DD
:1004200000000000000000000000000000000000CC
:100430000000000000000000000000000000FFFFBE
:10044000FFC0C0E06060703070E0C000000000FFDE
:10045000FF0000000000000000000000000000009D
:1004600000000000FEFF0E0E1C383870E0C0C08097
:10047000000000000000000000000000000000017B
:10048000010000000000000000FFFF00000000FF6E
:10049000FF0000000000000000000000000000005D
:1004A00000000000FFFFF07038381C0E0707030142
:1004B000000000000000000000000000000000003C
:1004C000000000000000000000FFFF00000000FF2F
:1004D000FF0000000000000000000000000000001D
:1004E000000000000000000000000000000000000C
:1004F0000000000000000000000000000000FCFE02
:10050000FE0C1C1818383030383F1F000000000364
:100510000707060606060606060606060606060679
:10052000060606060606060606060606060606066B
:10053000060606060606060606060606060607035D
:1005400000000000000000000000000000000000AB
:10055000000000000000000000000000000000009B
:10056000000000000000000000000000000000008B
:10057000000000000000000000000000000000007B
:10058000000000000000000000000000000000006B
:10059000000000000000000000008080C0C0E0E01B
:1005A0006070707030303030303070706060E0C03B
:1005B000C08080000000000000000000000000007B
:1005C000000000000000000000000000000000002B
:1005D000000000C0E070381C0E070303010000009B
:1005E000000000000000000000000000000000000B
:1005F000010103070E1C3870E0C00000000000007D
:1006000000000000000000000000000000000000EA
:10061000E0FCFF070180F0FC1E0600000000000067
:1006200000000000000000000000000000000000CA
:100630000000000000000000010FFFFCE0000000CF
:1006400000000000000000000000000000000000AA
:100650007FFFE00000030301000000000000000035
:10066000000000000000000000000000000000008A
:1006700000000000000000000000E0FF7F0000001C
:10068000000000000000000000000000000000006A
:1006900000071F7EF8E0800000000000000000005E
:1006A000000000000000000000000000000000004A
:1006B00000000000000080E0F03E1F03000000008A
:1006C000000000000000000000000000000000002A
:1006D00000000000000103070E1C38387060E0E0E5
:1006E000C0C0C0C0C0C0C0C0C0C0C0C0C0C0E0E0CA
:1006F000607038181E0F1F3970E0C08000000000C5
:1007000000000000000000000000000000000000E9
:1007100000000000000000000000000000000000D9
:1007200000000101010101010101010000000000C0
:10073000000000000000000000000103070E1C384C
:1007400070E0C08000000000000000000000000019
:100750000000000000000000000000000000000099
:100760000000000000000000000000000000000089
:100770000000000000000000000000000000000079
:100780000000010307060000000000000000000058
:100790000000000000000000000000000000000059
:1007A0000000000000000000000000000000000049
:1007B0000000000000000000000000000000000039
:1007C0000000000000000000000000000000000029
:1007D000008080C0E06060707070707070707070C9
:1007E00070707070707070707070707F7F707070EB
:1007F00070707070707070707070707070707070F9
:100800006060E0C0C0800000000000000000F0FC5C
:100810003F0703010000000000000000F8F800009E
:1008200000000000000000000000000000000000C8
:100830000080C0E0707060E0E08000000000000018
:100840000000000001071FFCF00000000000FFFF97
:1008500000000000181C1C1C1C1C1C1CFFFF1C1C86
:100860001C1C1C1C180800000000000000000000F8
:1008700000030F1E1818181E0F0700C0E06060600C
:10088000E0E0C000000000FFFF0000000000FFFFEC
:100890000000000000000000000000000F0F00003A
:1008A0000000000000000000000000000000000048
:1008B00000000000000000000000030F0F1C1818CB
:1008C0001C0F0700000000FFFF00000000001F7F5A
:1008D000F0C0C0808080808080808080C0E07838D8
:1008E0001C0C0E0E0606060606060606060606067C
:1008F000060606060E0C1C3878F0C08080808080CA
:100900008080808080C0F07F1F0000000000000019
:1009100000010101030303030303010101000000BF
:1009200000000000000000000000000000000000C7
:1009300000000000000000000000010101030303AB
:10094000030101010101000000000000000000009F
:100950000000000000000000000000000000000097
:100960000000000000000000000000000000000087
:100970000000000000000000000000000000000077
:100980000000000000000000000000000000000067
:100990000000000000000000000000000000000057
:1009A000000000000000F0F8181818181C1818189B
:1009B000F8F8F00000000000000000000000000057
:1009C0000000000000000000000000000000000027
:1009D0000000000080C0F0781C0E0E0703070F0E09
:1009E0001C381C1C0C0E0F0700000000000000004B
:1009F00000070F0C1C1C38381C0E070303070E1CC5
:100A00003C78E0C000000000000000000000000092
:100A100000000000010387EEFC3800000000000029
:100A20000080C0E0703818180C0C0C0C0C0C0C0C6E
:100A30001C1C183070E0C080000000000000307CFA
:100A4000FECF07030000000000000000000000F0DF
:100A5000FE1E060606060703000000000000E0FC7C
:100A60003F0701000000000000000000000000003F
:100A70000000000000000107FFFC800000000000F3
:100A80000307060606060EFEFCE000000000000F4D
:100A90003F3C30303070E0C0000000000000073FF5
:100AA000FEE08000000000000000000000000000E8
:100AB000000000000080C0F07F1F01000000000067
:100AC000C0F070303030303F3F03000000000000C5
:100AD00000000000C0E0F13F1F0000000000000027
:100AE000000103070E0C1C18183830303030303835
:100AF00018181C0E0F070301000000000000000F73
:100B00001F3B70E0C000000000000000000000007B
:100B1000000000000003070E1C3870E0E070783819
:100B2000181818383070E0C0000000000000000005
:100B300000E0F03038381C1C183870E0C0E060303D
:100B4000381C0E0703000000000000000000000039
:100B50000000000000000000000000000000000095
:100B60000000000000000F0F1C1818181818181C9F
:100B70001F0F070000000000000000000000000040
:100B80000000000000000000000000000000000065
:100B90000000000000000000000000000000000055
:100BA0000000000000000000000000000000000045
:100BB0000000000000000000000000000000000035
:101580000000000000000000000000002DE9F04F06
:101590000FF2A41CA1B0DCE90089CDE900892A9DE5
:1015A000DFF8109C049100248DF843500D944FF007
:1015B000FF38824616461F460FE0B3462C461BF8FE
:1015C000011B0498D0470028049000F0A2800D98D9
:1015D000401C641E0D90F2D176193078252808D170
:1015E000002100220791089209910A920B910C9216
:1015F0000DE06A464146304600F0F4FF050001D197
:101600000D98A1E0D9D50125E6E741F0010116F8D2
:10161000010F2028F9D023280CD02B2804D02D2806
:1016200005D0302809D076E041F00201EFE741F023
:101630000401ECE741F00801E9E741F01001E6E7B9
:101640000F9209E00F98484505DA00EB800402EBA1
:101650004402303A0F92761C3278A2F130000A2808
:10166000F0D330782E2818BFCDF8388022D116F864
:10167000010F2A2807D138683860761C50F8042BEF
:1016800038600E9216E02D280CBF761C0020002238
:101690000E920AE040B90E9A4A4505DA02EB82043E
:1016A00003EB4403303B0E93761C3378A3F13002F6
:1016B0000A2AEFD3ADF8401021A0317800F09CFF4A
:1016C00008B116F8010B8DF842009DF84200682819
:1016D00004D1307868280AD1622105E06C2804BF63
:1016E00030786C2803D171218DF84210761C12A835
:1016F00006903A4616F8013B02A9504600F064F8FD
:1017000038B912AA02A9504600F0CAF900287FF59C
:1017100064AF404618E02A2892D13A683A6052F8FD
:10172000040B3A6000280F9003D540420F9041F01F
:101730000401761C95E70000000000000000000096
:10174000686A6C747A4C000021B0BDE8F08F6228A2
:1017500020D0682811D06A2803D06C2827D071289F
:1017600025D10868C01D20F007000860D0E90023DB
:1017700008300860194610467047002A0A680A6057
:10178000106803D0121D0A6000B217E0121D0A6033
:1017900080B217E0002A0A680A60106803D0121DA0
:1017A0000A6040B20AE0121D0A60C0B20AE0002AD4
:1017B0000A680A60106803D0121D0A60C1177047DA
:1017C000121D0A60002170477CB50D4611461C466B
:1017D0002E69B4F1250200F051811C3A00F0868098
:1017E000121F022A40F282800E3A00F00B81521F33
:1017F0005AD0093A7AD0921E16D0521E35D0521EB7
:10180000022A73D9121F30D0521F00F09A80521E44
:101810004AD0521E00F0E480D21E00F00181921ED8
:1018200042D0D21E40D02FE195F83A406C2C09D01E
:101830006869421C6A610A680A6052F8043B0A60DF
:1018400033542BE10A680A6052F8043B0A600093A3
:10185000002201924FF0FF332B636A46294600F0C5
:101860009AF9002840F11A8105E195F83A00012221
:10187000FFF76DFFC5E900010023994204DA6869AA
:10188000411C69612D220DE0288F810704D568690C
:10189000411C69612B2205E0C00722D56869411C03
:1018A0006961202232541CE095F83A000022FFF7CB
:1018B0004EFFC5E9000195F83800010711D5D5E9BB
:1018C00000230020834208BF82420AD044F0200057
:1018D000782806D1686930213154401C421C6A6165
:1018E0003454214668693044E86087E00868C01DC8
:1018F00020F007000860D0E9002308300860C5E93F
:101900000023D5E90001C80F04D06869411C696152
:101910002D220DE0288F810704D56869411C69617B
:101920002B2205E0C00704D56869411C69612022AB
:10193000325468693044E8602146284600F03AFA9B
:10194000ACE005F13A02507820B14FF0FF340FF6C9
:10195000343074E01078622808D0682824D06A28CF
:1019600012D06C282ED071280ED02BE00A680A60A5
:1019700052F8040B0A6020B94FF0FF340FF61C3008
:101980005DE0E96A017089E00A680A6052F8040BB8
:101990000A6020B94FF0FF340FF600304FE0EA6ADA
:1019A000D317C0E9002379E00A680A6052F8040BF3
:1019B0000A6020B94FF0FF340FF6E0203FE0E96AFB
:1019C00001806BE00A680A6052F8040B0A6020B9D3
:1019D0004FF0FF340FF6C42031E0E96A01605DE0AA
:1019E0000A680A6052F8040B0A60002120F0000225
:1019F00021F0FF33C5E90023EE607821284600F08E
:101A00002DF94BE06C2285F83A200B680B6053F8F7
:101A1000042B0B6052BB4FF0FF340FF6B4200EE0E6
:101A200095F83A206C2AF0D00868086050F8044B0A
:101A30000860EC603CB94FF0FF340FF6782000F0FE
:101A400003FE201A76BD2E6B002E04D5204600F032
:101A50001BFE044608E032460021204600F03EFE10
:101A6000002814BF041B3446AC6117E0294600F07F
:101A700092F8002812D54FF0FF3076BD6869411CFE
:101A800069612522325409E06969481C6861252290
:101A90007254210002D0431C6B613454002076BD87
:101AA0002DE9F0410E4605469046726B7069316A29
:101AB000B46A121AB069521A716A121AF069521A8B
:101AC000121A96F83800141B41070DD4002C0BDDB8
:101AD0002746B0682021A8470028B06057D0F06A98
:101AE000401C7F1EF062F4D173694246314628469D
:101AF00000F0B0FC00284AD1376A002F0ADDB06838
:101B00003021A8470028B06041D0F06A401C7F1EF9
:101B1000F062F4D1B369F2683146284600F09AFCCD
:101B2000A8BB776A002F09DDB0683021A847B060F4
:101B300068B3F06A401C7F1EF062F5D1F068B169AD
:101B4000F36942183146284600F084FCF8B9B76AB8
:101B5000002F09DDB0683021A847B060B8B1F06A45
:101B6000401C7F1EF062F5D196F8380041070BD576
:101B7000002C09DDB0682021A847B06038B1F06AB8
:101B8000401C641EF062F5D10020BDE8F0814FF0EA
:101B9000FF30BDE8F0812DE9F8470D46A3B02F6B6B
:101BA000002F0646904648BF6FF000470FF63C14E2
:101BB00000F0C0FDD4E90023696B4018CDE9012392
:101BC000812828BF4FF0FF3042D20024002F33DDA0
:101BD000D8F8001001AA684600F006FD8146B9F168
:101BE000000F38D4D8F8000010B9B9F1010932D487
:101BF0004F4521DB6869484481280AD30021696385
:101C000003AA29463046FFF74BFF040014D40020F6
:101C1000686103ABD5F814A04A46694603EB0A0095
:101C200000F092FDCA44C5F814A058F8040B00282F
:101C300018BFA7EB0907C9D14CB903AA29463046FA
:101C4000FFF72EFF044614B9002068616863204640
:101C500024B0BDE8F0874FF0FF34F8E72DE9FC47EA
:101C600007468C463E69BCF16F0F08BF082405D0BB
:101C70004CF02000782814BF0A2410243C25D7E912
:101C80000023BCF1640F18BFBCF1690F9046994660
:101C900006D100218B4203DAD8F1000869EB49092B
:101CA0004FF0000AD14508BFD0451FD1386BE8B9C5
:101CB000082C4BD197F83800010747D530203B2539
:101CC00086F83B0042E000280ED597F8380000F077
:101CD0001400102808D17B6B7969386A5B1A1B1ACB
:101CE0009A1A002AC8BF3A62BDE8F3878DF800C08F
:101CF000404649462246E31700F07AFD3032D0B222
:101D00006D1E3A28019504DB9DF80000A0F15101F9
:101D10008A187255404649462246E31700F068FD8E
:101D200089468046D14508BFD04503D0F86871196F
:101D30008842DDD3082C09D197F83800010705D572
:101D4000705D302802D06D1E30207055C5F13C0208
:101D5000BA617119F960386B8242B4DA821A3A6258
:101D60004FF6EF70398F01403987BDE8F3872DE9D1
:101D7000D04306460F4614464FF00008DFF838946B
:101D800012E0E00707D542464B463046394600F0A0
:101D900047FE06460F464046494642464B4600F03F
:101DA0003FFE641080468946002CEAD13046394611
:101DB000BDE8D0832DE9F34F054641F020048DB0F6
:101DC000D5E90089612C02AE09D0286B002848BFF4
:101DD000062003D408BF672C01D101202863D5E970
:101DE000002358004015401C0ED119030CD00320CD
:101DF000A8619DF8381061391A2902D20FF2F461F6
:101E000011E00FF2F4610EE059004915491C0FD1A1
:101E100018030DD10320A8619DF8381061391A29E3
:101E200014D30FF2DC61E868032200F08DFCD3E1EB
:101E3000194621F00043B3F5801F10460DD200274C
:101E4000BB4208BFBA42019703D111E00FF2AC6167
:101E5000E9E701AA00F0B6FE0AE0DFF8607307EBDD
:101E60001352DFF85C3301921940DFF858331943FD
:101E7000C5E90001612C0ED1E86830210170821C97
:101E8000EA609DF8381061290CBF78215821417013
:101E90006869801C6861D5E900AB2BF00043002025
:101EA0002AF00002834204BF8242002300F05B81DB
:101EB000612C40F0AA80286B002847BF21210091A7
:101EC000401C0090009F7F1C404649460022002392
:101ED00000F0B0FED94601998DF8082038BF89F08E
:101EE0000049091F002FD04601910DF1090040F370
:101EF0004981B349DFF8D0B20C91064640464946C5
:101F00000022002300F0AEFE80F03B814800400D2F
:101F100000F11C0211D0002A0FDD40F2FF70824256
:101F200005DB09F0004040EA0B01002013E00C98AB
:101F3000014041EA025140460DE029F000430020F3
:101F400028F00002834208BF82420FBF40461C2295
:101F5000404600F09FFE8046894600F039FFFF1F93
:101F6000002F044609DD00F051FF02460B464046B3
:101F7000494600F05DFF80468946F01D072104E0D8
:101F800004F00F0200F8012D2411002C01DD491E80
:101F9000F6D5491E5CBF002200F8012DF9D5ECE012
:101FA0000020194602AA0A4400E05B1E12F801490B
:101FB000491E8442F9D00F2804D10DF10900425C7A
:101FC000521C4254002904D50198001D02AE5B1C2E
:101FD0000190591E12D49DF838007218A0F13A07EA
:101FE000147804F130085FFA88F43A2CA8BFB8449A
:101FF000491E02F80189F3D58DF83800286B0028B6
:1020000040F1B080591E2963ACE0404649460022A9
:10201000002300F00FFE019938BF89F0004947F214
:1020200097504143694A91FBF2F20192D2F10702C3
:1020300004DD40464946FFF79AFE0AE0524200207E
:102040006349FFF794FE02460B464046494600F0BE
:1020500061FF8046662C286BDFF878B106BF019FD0
:102060000A3706273F18142FC8BF142730208DF8D1
:10207000080089460DF1090000E03046002F34DDEC
:1020800006464046494601F069F801460A4606F10F
:10209000080304200A26B2FBF6F606EB860EA2EB36
:1020A0004E02303203F8012C0A22B6FBF2F202EBA8
:1020B000820EA6EB4E063036401E03F8026DE9D1C3
:1020C000083F002F03F10806D7DD084601F05AF853
:1020D00002460B464046494600F0AAFE00225B46F7
:1020E00000F09EFC80468946CBE70DF10901401ABD
:1020F0000DF1090604E00199491E401E0191761C6C
:1021000031783029F7D0662C02D10199491C03E0BF
:10211000652C0CBF012100212B6BCB189842B8BF56
:10212000431E002B1ED4834204DAF05C3528A8BF7E
:10213000392000DA30201946721E02EB010800E057
:102140005B1E18F80199491E8145F9D0392802D142
:10215000705C401C7054002904D50198401C164640
:102160005B1C0190019800B200901BB29DF83810E2
:102170003246284600F034F82EE0C61D002F3FF707
:10218000BDAE30460DF10901401A00990346884260
:10219000C8BF0B46002B0DF109063FF52FAF834258
:1021A000BFF6FEAE0DF10900C15C07297FF7F8AE5E
:1021B0000F20F6E6CBCCCC0C0000244002FCFFFF45
:1021C000FFFF0F800000E03F0000F07FA0860100CD
:1021D0000000F03F84D797410FB0BDE8F08F0000BA
:1021E0002DE9F84783B006468A461746984600F020
:1021F000FDF9B8F1000F406A356B90F8009002DCF1
:102200004FF00108BFA74AF02000BDF93040662812
:1022100008BF641C15D0672840F0848014F1040FB7
:10222000C0F28680AC4280F2838096F83800641C4D
:10223000010702D4A845B8BF454620B22D1A48BFB1
:1022400000250FFA84FAF068B169BAF1000F25DCB5
:102250004A1C30234354002D03DC96F83800010754
:1022600003D5F06800F80290521C15EB0A0FB8BFB6
:102270006C4220B2441941424445B8BFA046B26105
:1022800071620FFA88F5F561F068B3692A4639463C
:10229000184400F059FA641BB462C4E022B29045BD
:1022A000084417DA4246394600F04EFAB069404415
:1022B000B061AAEB0801002D716203DC96F83810BA
:1022C0000A0705D5F16801F80090F069401CF0613B
:1022D000B562A8E0394600F037FAB069002D5044E5
:1022E000A8EB040803DC96F838100A0703D5F16858
:1022F00001F80090401CB0610FFA88F08542F36845
:10230000B069B8BFA8460FFA88F207EB0A01184473
:1023100000F01AFAB1690FFA88F00144B161281A85
:10232000706280E0BAF1610F14D14FF0700A16E0CC
:10233000A84504DA96F838100A0758BF45466D1EBE
:1023400048BF0025BAF1670F14BF4FF0450A4FF0A0
:10235000650A04E0BAF1410F08BF4FF0500AB169B5
:10236000F368481CB061002D17F8012B5A5403DCA8
:1023700096F838100A071BD5F168431CB36101F8C1
:102380000090002D14DDA8F101080FFA88F03946FD
:102390008542F768B8BFA8460FFA88F2F81800F02F
:1023A000D3F9B0690FFA88F108446D1AB06175620B
:1023B000F068B1690844002C80F800A003D42B22F7
:1023C0004270811C03E02D2141706442811C002079
:1023D0006A460AE023460A2493FBF4F404EB8405DE
:1023E000A3EB450302F8013B401C24B2002CF1DCB6
:1023F000012806DC4AF02002652A04BF302201F8D9
:10240000012B48B9302001F8010B07E0401E1DF8F0
:102410000030303301F8013B0028F7DCF268B06986
:102420001044091AF16196F8380000F014001028E1
:102430000DD17269B169706A8A18F1698218B06A3F
:102440008A188218706B8242BCBF821A326204B052
:10245000BDE8F087F8B505460E4617461C46002035
:1024600074B117F8011BB068A847B06030B1F06ACA
:10247000401CF0620020641EF3D1F2BD4FF0FF302B
:10248000F2BD00007072696E74665F733A20256E4B
:1024900020646973616C6C6F776564007072696E3B
:1024A00074663A2062616420256E20617267756DE2
:1024B000656E74007072696E74665F733A20626153
:1024C0006420257320617267756D656E740000006D
:1024D0007072696E74665F733A2062616420256C65
:1024E0007320617267756D656E74000000000000F6
:1024F000000000006E616E004E414E00696E660085
:10250000494E46003000F0B4024610689568131832
:10251000506803EB5004C0071DD54D441BE013F871
:10252000017B05F8017B491EF9D1A0B1B60813F86B
:10253000011B06F00306032E08BF13F8016B01EB25
:1025400006214942801C294405D011F8016B05F889
:10255000016B401EF9D1A3420ED013F8016B16F0A7
:10256000030104BF13F8011BC91C30090F28DAD17D
:1025700013F8010B0F30D6E7F0BC02F10C007047E6
:102580001B48704770B45368D418042B09DA41B162
:10259000057804F8015B10F8016B16B15B1C491E4D
:1025A000F3E7536070BC704738B514461D4661B1FF
:1025B000FFF7E8FF61686A6B204690476FF0010201
:1025C000811A02D0491E01D001E003E005E000219C
:1025D000616032BD6FF0010032BD4FF0FF3032BD9F
:1025E000DA6B1047024BDFE7014BF9E70148704710
:1025F0004C160020141600200278C9B28A421AB183
:102600001CBF10F8012FF9E718BF0020704730B445
:10261000002513E050F8042BD30744BFA9F10103B0
:102620009A18091F042942F8045BFAD213468C0752
:1026300044BF15809B1CC90748BF1D7050F8041B80
:102640000029E7D130BC704780B500B906A0054924
:102650000B681BB122220021984701E000F09FFD8A
:10266000222002BD442B0020636F6E737472616977
:102670006E742068616E646C65723A2062616420D9
:102680006D6573736167650000F10103810704D014
:1026900010F8011B820781B1FAD10268A2F1013161
:1026A000914311F0803104BF50F8042FF6E709BAC6
:1026B000B1FA81F100EBD100401CC01A7047B1F5AE
:1026C000807F02D34FF0FF307047017001207047C8
:1026D0000078401E8041C043C00F7047C9B28307D5
:1026E00006D0521E22D310F8013B9942F7D11FE0C9
:1026F000083A13D302F1040241EA012141EA0141FF
:1027000050F8043B121F21BF4B40A3F1013C2CEABF
:10271000030C1CF0803FF3D0C9B2001F083210F840
:10272000013B521E28BF91EA030FF8D818BF0120C1
:10273000401E704780B5FFF723FF006C02BD0268A2
:10274000531C03601170704762B38B0708D0521E90
:1027500011F8013B00F8013B00F024808B07F6D113
:10276000830740F0208000BF103A07D330B4B1E8AF
:102770003810103AA0E83810F9D230BC530724BF03
:10278000B1E80810A0E8081044BF51F8043B40F835
:10279000043BD20724BF31F8022B20F8022B44BFA0
:1027A0000B7803707047121F17D35B0009D151F8E3
:1027B000043B20F8023B1B0C121F20F8023BF6D210
:1027C0000BE051F8043B00F8013B1B0A20F8023BE8
:1027D0001B0C121F00F8013BF3D238BF121D521E12
:1027E00024BF11F8013B00F8013BF8D87047000006
:1027F000BBBBE1B1B2F5803F80F07E80022A1ED9DA
:102800008C46B1FBF2F102FB11C31B0443EA1043F7
:10281000B3FBF2FC02FB1C3380B240EA0343B3FB80
:10282000F2F002FB103240EA0C4000237047022A0B
:1028300005D98446B0FBF2F002FB10C270474AB1E2
:1028400005D100F0010249085FEA3000704700221C
:102850000023704700F0A6BC0B00020000210020FE
:102860007047904271EB030CF6D3B3F5803F2FD243
:10287000F0B5B3FA83F7B1FA81F4A7F10F0E3D1B5F
:102880005340CEF1200602FA0EF2F3415340B5F167
:102890000F0746D80F3C2C444140C4F12006A0400D
:1028A000F1414140B1FBF3F603FB1611A2FB0645D3
:1028B000001BA94102D2761E8018594180EA01020C
:1028C00021FA0EF362FA0EF200215A403046F0BDB2
:1028D00030B4B1FBF3FC03FB1C11A2FB0C45001B45
:1028E000A94103D2ACF1010C8018594130BC024619
:1028F0000B46604600217047B2F1807F65D3F0B58A
:10290000B2FA82F7B1FA81F4C7F10F063D1B22FA41
:1029100006F307F1110EF24120355A40B5F10F07C9
:10292000B8D94140C4F12006A040F1414140B1FB7B
:10293000F3FC03FB1C11A2FB0C45001BA94103D2B5
:10294000BCF1010C801859410F2F12D30F3FC9035E
:1029500041EA5041B1FBF3F603FB1611A2FB064519
:10296000D4EBC030A94102D2761E8018594146EA04
:10297000CC3C07B34140C7F12006B840F14141408B
:10298000B1FBF3F603FB1611A2FB0645001BA941A0
:1029900002D2761E8018594180EA010221FA0EF314
:1029A000C7F1200462FA0EF20CFA07F05A402CFA32
:1029B00004F13043F0BD80EA010221FA0EF3002158
:1029C00062FA0EF260465A40F0BD8C46B1FBF2F15D
:1029D00002FB11C31B0243EA1063B3FBF2FC02FBD0
:1029E0001C331B024CEA002043EA1063B3FBF2FCE9
:1029F00002FB1C331B024CEA002043EA1063B3FBCA
:102A0000F2FC02FB1C331B024CEA002043EA106379
:102A1000B3FBF2FC02FB1C324CEA0020002370479F
:102A2000B0B581EA030C0CF0004C40F2FF7515EADA
:102A300011541DBF15EA1357AC42AF4239E0E419F7
:102A400023EA455343F48013C90241F0004141EAAF
:102A5000505EC7021100A7FB020200284FF00000E1
:102A6000EEFB01204FF00001E3FB072118BF42F00D
:102A70000102401800214941E3FB0E01A4F58064E6
:102A80000F0302D252004041494154F101046CDD70
:102A9000470872F1004250F1000051EB0451A1F5DA
:102AA00080115CBF41EA0C01B0BD4CEA0551002029
:102AB000B0BD05EA1357AC4214BFAF4241E050EA43
:102AC000410E1CBF52EA430E02E061460020B0BD39
:102AD00024423C441BD15FEA070EF6D0090302BF33
:102AE00001460020AEF1140EB1FA81F7AEEB0704F7
:102AF00001FA07FE0C37C7F1200100FA07F7C840BA
:102B00004EEA000E23EA455343F48013A2E733F064
:102B10000043B3FA83F704BFB2FA82FE77440B3F57
:102B2000E41BB7F1200E2FBF02FA0EF3BB40C7F132
:102B3000200E22FA0EFE38BF43EA0E03BA40641C90
:102B400082E750EA410E14BF52EA430E6FF00001D3
:102B50004FF4001717EB430F8ABF194617EB410FCD
:102B6000B5E74CEA05510020B0BDD4F10104B4F141
:102B700020070FDAC4F12007520828BF42F00102F3
:102B800010FA07F501FA07F7E1BF2A43E04038439E
:102B9000E1400FE0352C98DCC7F1200452EA4002F6
:102BA00020FA07F218BF42F0010231FA07F0A14003
:102BB0000A43002172F1004250F1000051EB0C0178
:102BC000B0BD000010B5144600F002F8226010BD40
:102BD000C1F30A5343B14A0012F5001F28D2A3F2F1
:102BE000FE32A1EB0251704750EA410C20D001F0B7
:102BF000004C31EA0C01B1FA81F204BFB0FA80F363
:102C0000D2180B3AB2F120032CBF00FA03F1914025
:102C100041EA0C013EBFC2F1200C20FA0CF319432B
:102C20009040524240F2FD33D21A01EB03517047FB
:102C3000002270474FF4001C1CEB410F94BF1CEBAB
:102C4000430F09E041EA030C50EA4C0C52EA0C0C29
:102C500003D2994208BF9042704714BF8B42824210
:102C6000704700004FF4001C1CEB410F94BF1CEB9D
:102C7000430F09E041EA030C50EA4C0C52EA0C0CF9
:102C800003D28B4208BF8242704714BF99429042E0
:102C900070470000124254D440F2FF7C1CEA1153EA
:102CA0000FD0634531D09B1863453CBF01EB025107
:102CB000704701F0004141EA0C510020AFF3008061
:102CC000704750EA410320D001F0004C91EA0C011A
:102CD0001CD0B1FA81F30B3B9A420DD9D21A99401C
:102CE00051EA0C01C3F1200C20FA0CFC614498401D
:102CF000531C40F2FF7CD7E7914041EA0C01C2F13E
:102D0000200C20FA0CF3194390407047B0FA80F37E
:102D10001533202BE0D3202AEED3203A203B9A42D1
:102D200009D9D21A00FA03F141EA0C010020531C20
:102D300040F2FF7CB8E700FA02F141EA0C01002002
:102D40007047524240F2FF7C1CEA11530DD063459C
:102D5000DBD0B2EB030C3CBFA1EB025170470CF18E
:102D6000010221EA035141F4801150EA410CCCD018
:102D700001F0004C352A27DC30B481EA0C01B2F1B5
:102D8000200309DAC2F12003044601FA03F5D0401A
:102D90002843D1409C400CE0C3F12002450020FABA
:102DA00003F418BF44F0010421FA03F091400C43EE
:102DB000002174F1004550F1000051EB0C01244258
:102DC00030BC7FF47BAF70476146002076E700009F
:102DD000C1F30A5340F2FE329B1A14DDD3F12003F3
:102DE0004FEAE17208DDC90241EA505141F000406A
:102DF000D84080185040704703F2E13010B1D24300
:102E000082F000407047002070470000C11768B191
:102E10004840401AB0FA80F29040D21CC907C2F56F
:102E2000846241EA025202EBD02140057047000063
:102E300070B44FF0004591EA030F40F1B5816B404B
:102E4000841A71EB030603D2001BB14112197341BE
:102E50004FF4001C1CEB410F34BF7CEB430442E0F9
:102E60000C0DA4EB1356352E4FDC45EAC323DB0AC9
:102E700045EAC121C912B6F120050DDD63FA05F658
:102E8000EB4086EA0305124218BF45F00105C01861
:102E900051F100010CD213E062FA06F5F240554000
:102EA000F3415A40B340F3405A408018594107D388
:102EB00049085FEA30005FEA350528BF45F00105A3
:102EC00001F58011420875F1004250F1000041EB1C
:102ED00004514E0016F5001F70BC38BF704700202B
:102EE000090D090570471CEB410F10D252EA430649
:102EF0000BD0BCEB410F05D80C0DAB43661E342E36
:102F0000B6DD02E0AB438018594170BC704770BC1D
:102F100070470000F0B540F2FF7581EA030C0CF039
:102F2000004C15EA11541DBF15EA1357AC42AF42CD
:102F3000E5E0BC41C1F31301C3F31303801A9941C7
:102F400043F4801304D2641E400049418018594163
:102F5000C90241EA5051B1FBF3F603FB1611A2FB83
:102F60000675D7EBC020A94102D2761E80185941C0
:102F7000C90241EA5051B1FBF3FE03FB1E11A2FB53
:102F80000E75D7EBC020A94103D2AEF1010E801817
:102F90005941890241EA9051760546EA8E2EB1FBED
:102FA000F3F603FB1611A2FB0675D7EB8020A941AF
:102FB00002D2761E80185941C90241EA50514EEAA8
:102FC000060EB1FBF3F603FB1611A2FB0675D7EB59
:102FD000C020A94102D2761E80185941C90241EA97
:102FE0005051B1FBF3F703FB1711A2FB0735D3EBED
:102FF000C020A94167F100070CBF004247F001075C
:1030000066F3D5274FEA1E31B80814F5806412DD47
:10301000BD0775F1004250EB0E5051EB045111F514
:10302000801F5CBF41EA0C01F0BD4CF07F6141F0B4
:10303000E0410020F0BDBD076D0840EA0E5041F4AC
:103040008011D4F10104B4F120060ADAC4F120069B
:103050000200E04001FA06F3E1401843B240154394
:103060000EE0342C13DCC6F1200445EA40056D085F
:1030700020FA06F2154321FA06F0A1400D43002183
:1030800075F1004250F1000051EB0C01F0BD002041
:103090005FEA0C01F0BDCFB992185B41B3FA83F738
:1030A00004BFB2FA82F6BF190B3FB7F120062FBF5B
:1030B00002FA06F3BB40C7F1200622FA06F638BF33
:1030C0003343BA401CB1E419641E33E77F4231F048
:1030D0000041B1FA81F404BFB0FA80F6A4190B3CA8
:1030E000B4F120062FBF00FA06F1A140C4F120067A
:1030F00020FA06F638BF3143A0403C1B1AE7AC4229
:103100001ABF05EA1357AF4212E050EA41061CBF4E
:1031100052EA4306BFE750EA4107304661461CBF0A
:1031200041EA0551F0BD52EA430C08BFC143F0BD6E
:1031300000204FF4001616EB410F98BF16EB430F1B
:1031400008BF16EB410F24BFC14305E016EB430F48
:103150000CBF61464CEA0551F0BD0000400D491816
:1031600040EA81200CD2490DA1F58061491C40F054
:10317000004005DBD1F11F0154BFC840C0177047A4
:1031800000207047014648B1B0FA80F18840C91C60
:10319000C1F58461090501EBD0214005704701208C
:1031A00000F0B8B870470000841A71EB030604D22F
:1031B0006E40001BB141121973414FF4001C1CEB0F
:1031C000410F34BF7CEB430683E00C0DA4EB135698
:1031D000362E00F37C80012E45EAC32341DC43EA0E
:1031E000525312BFD20292025B08240545EAC12164
:1031F00041EA5051D2EBC020994125D407D1B0FA11
:1032000080F610FA06F162D00020203608E0B1FA0C
:1032100081F6B140C6F1200220FA02F21143B0401B
:103220004FEAF474B4EB465434F001064FEA7404E8
:103230000AD8D6F50016760D04F00044F04061FA85
:1032400006F25040F1404840C00A40EA415021F0A7
:10325000004128BF5FEA500550F1000044EBD12146
:1032600035E0DB0A45EAC121C90AB6F120050EDDC9
:1032700042EA0242120CC5F1200603FA06F6EB40C0
:1032800042EA06056D42984161F100010DE062FAE3
:1032900006F5F240554063FA06FC82EA0C02F34060
:1032A0005A406D42904161EB030111F4801F05D13A
:1032B000641E620502D06D004041494121F4801135
:1032C000430875F1004350F1000041EB045170BC1C
:1032D00070471CEB410F15D223F0004352EA43061E
:1032E0000BD04FEA4C0CBCEB410F04D80C0D661E02
:1032F000342EB7DDEBE7801A994150EA410608BF4A
:103300000021E4E708BF1CEB430F28BF6FF000016A
:10331000DDE7000080B5AFF30080024A11001820FD
:10332000ABBEFBE7260002002DE9F8430646174630
:1033300084B088469946B80000F004FC05001AD015
:10334000602000F0FFFB040012D00D990C9825635B
:10335000002203920191009002944B463A46414666
:10336000304600F00DF8204600F04EF8012004E051
:10337000284600F06FFC4FF0FF3005B0BDE8F08349
:103380002DE9F0470A9D81460C461646286B984663
:10339000A522B10000F0AEFC296B01EB8602101FE4
:1033A000C0084FEAC00A0021625C6B1883F8342021
:1033B000605C10B1491C1029F6D3089E002085F8E6
:1033C0004300062E099C88BF062605F14C07EE62D5
:1033D0003E607860C6F10706281D00F0B5FC05F1D7
:1033E000180000F0B1FC2D61AE616D620020B86084
:1033F000F860387442464946504600F0E1FC2860C7
:1034000004B12560BDE8F0872DE9F04100F063F8D4
:10341000DFF83055DFF83085E86C401CE86414268E
:10342000A86A28BBAC62E86C012829D1002706FBFA
:1034300007F0404400F07BFC7F1C072FF7D305F119
:10344000780000F074FC05F18C07384600F06FFC42
:10345000284600F06CFC05F1140000F068FC05F152
:10346000380000F064FC05F17800E8622F6307E0A3
:10347000A86D28B9E06AA96ACA6A904228BFAC62FE
:10348000A86E401CA866606400F0EDFA4643211D5A
:1034900008EB060000F05BFC00F01FFDA86D08B112
:1034A00000F007FBBDE8F08180B588B1DFF8942417
:1034B000116F21B100F012F800F0B8F9FEE7116FBA
:1034C000491C1167002100F003FB00F047F808B920
:1034D00000F0A7F901BD044600F0E6BC502080F3DF
:1034E00011887047211D142042439818704700002E
:1034F0002DE93E40DFF84C4413A104F1A0000190F7
:1035000000250095002340220FF23530FFF70CFF15
:103510005021012810D181F3118800F087F94FF074
:10352000FF30E0660121A165256500F043FDBDE89F
:10353000374000F067BC37BD10F1010FFBD181F3BC
:10354000118800F073F9FEE749444C450000000083
:10355000DFF8F003016F491C0167704770B5DFF8B1
:10356000E463306F0024002500F0D3F800F09CFCE9
:10357000306F401E3067306F002836D1F06CD8B9FC
:1035800033E0F068C46800F032F800F0DFF9E06A78
:10359000716DDFF8143501228240114371651422E8
:1035A0005043211D184400F0D2FBE06AB16ACA6A98
:1035B000904224BF0121316630680028E1D10CB16E
:1035C00000F068F9F46D3CB100F015F808B1012085
:1035D0003066641EF8D1F565306E30B1DFF8C41482
:1035E0004FF08050012500F020F900F056BA04F1A8
:1035F000180000F0D2BB2DE9F843DFF84873386FAC
:10360000002600284FD13C6D641C3C6511D1F86A3E
:10361000006828B1502181F3118800F007F9FEE716
:10362000F86A396BF9623863786E401C786600F08E
:1036300031F9F86EDFF8709484424FF0140825D306
:103640001AE0281D00F0A9FBA86A18B105F11800BE
:1036500000F0A3FBE86A796D01228240114379658D
:1036600008FB00F0291D484400F071FBE86AB96AC4
:10367000CA6A904228BF0126F86A006880B1F86AD9
:10368000C168CD6868688442DBD2F866B86AC06AEF
:1036900008FB00F059F80010022907D3012605E0C5
:1036A0004FF0FF30F1E7F86D401CF865386E00B15F
:1036B000012600F0FBB910B5DFF88842206F10B189
:1036C0000121216610BD206600F075FC616F81420A
:1036D00004D2A26A536DC318591A51656067142148
:1036E000606DB0FA80F2C2F11F024A43DFF8401465
:1036F000885800F00EF8881800F1080241684968FF
:103700004160914204BF496841604068C168A1625C
:1037100010BD38B9502181F31188BFF34F8FBFF32B
:103720006F8FFEE7704710B50C4620B9FFF7D6FE45
:1037300000F07CF8FEE7DFF80C22936A03F1180131
:1037400000F012FB2046BDE81040FFE7012100F029
:10375000BFB938B5C068C46824B9FFF7BFFE00F030
:1037600065F8FEE7FFF743FFDFF8D851286F60B92F
:1037700000F0ECF8E26A686DDFF8B43301219140A3
:1037800008436865FFF7AEFE02E004F11801284621
:1037900000F0DDFA00F006F802D20120286632BD02
:1037A000002032BDA86AC16AE06A81427047DFF832
:1037B00084134A6E0260096D41607047F8B5044693
:1037C0000D46502024B980F3118800F02FF8FEE751
:1037D00025B980F3118800F029F8FEE700F064FBBA
:1037E000DFF85003016D62682E688B1A16F1010F25
:1037F0000ED0476ED4F800C0674501D091420BD27D
:10380000B34207D2F31A2B60416E2160006D6060F5
:10381000002402E000202860012400F05EFB204626
:10382000F2BDDFF880124FF080500860BFF34F8F79
:10383000BFF36F8F7047DFF8FC12012008667047F6
:1038400070B5414CDFF8EC5211E000F02DFB286A16
:10385000C668301D00F0A1FAE86C401EE864686B91
:10386000401E686300F039FB304600F009F8686BD1
:103870000028EAD121680229F9D3FFF7D2FFF6E741
:1038800010B50446206B00F0E5F92046BDE8104075
:1038900000F0E0B92B49C86A006810B94FF0FF3258
:1038A00003E0C86AC268D0684268CA667047DFF839
:1038B0008412886D08B901207047086F08B902208A
:1038C0007047002070472DE9F04104460020002C8D
:1038D00035D01C4DE16AAA6AD36A994229D2A069FF
:1038E000002804D4A86AC16AC1F10701A1611427A4
:1038F000E16ADFF83C82606979434144884214D12F
:1039000000F024F80126002801BFE16A07FB01F25C
:1039100058F80200002800F05DF8A86AC06AE0626A
:103920008640696D00F04EF808E0A86AC16AE1625D
:1039300004E0E16CAA6AD36A994200D20120BDE892
:10394000F08100002C280020D0280020201D00F04D
:1039500024BA2DE9F04104460021002C2FD0DFF8D5
:10396000D451A86A5022844204D082F31188FFF710
:103970005DFFFEE7206D00F07DF8E26AE36C401E1B
:103980009A4220651BD0D0B9FFF7E0FF012614272B
:10399000DFF89C81002801BFE16A07FB01F258F8BB
:1039A0000200002800F016F8E06CE062C0F10700A9
:1039B000A061E06A696D864000F004F801210846C4
:1039C000BDE8F0810E4347436E65211D08EB0700FB
:1039D00000F0BDB905D1686D06FA01F120EA0101D8
:1039E00069657047F8B504003CD0206D502200F0A6
:1039F00041F8E36C994238BF1946E36A8B4231D0F3
:103A000001282FD1DFF82C51A86A844204D182F317
:103A10001188FFF70BFFFEE7A069DFF81461E16290
:103A200000285CBFC1F10701A161142761697B43D4
:103A3000F218914216D1FFF789FF002801BFE16A11
:103A400007FB01F2B058002806D1686D012202FA86
:103A500001F120EA0101696500F005F84743211DE5
:103A6000F0196BE0F1BD0122E06A696D82401143FB
:103A70006965704730B982F31188BFF34F8FBFF388
:103A80006F8FFEE77047DFF8AC10886A18B1886A5C
:103A9000026D521C0265886A704700F01EFA2846C3
:103AA00070BD000004ED00E0D02800203046BDE8E5
:103AB000F283A86AC16AE06A814207D21E4A4FF0C7
:103AC00080511160BFF34F8FBFF36F8F70470000BD
:103AD000F8B5184D2F6D0C46A96A0646081D00F072
:103AE0005CF930B9A86A696DC06A012282409143CD
:103AF000696516F1010F05D124B1A86A011D05F110
:103B000038001BE0A86AF6194660BE42A86A05D2D2
:103B1000011D286BBDE8F44000F026B9011DE86ADC
:103B200000F022F9E86E864238BFEE66F1BD000073
:103B3000D02800202C28002004ED00E0BDE8F4404F
:103B400000F005B92DE9F8430446FFF701FD684F81
:103B5000B8684FF00009002500BB07F1180307F112
:103B6000180113F0070F40F6B8300A4604D0CA1DFA
:103B7000D208D200801A081880180838C008C0007F
:103B80003A607D60B86045600560831A53601060DC
:103B900050683861F8604FF0004078614FF050088D
:103BA0007869044233D194B3083414F0070F1FBF6F
:103BB00004F1080004F00704041B14F0070F02D0FE
:103BC00000F041F8FEE714B3F868A0421FD33E6846
:103BD00039467068A04223D2306800281CBF3146A5
:103BE0000646F6D11CE0301D02517460084600F014
:103BF0005BF87168F8683A69401AF860904238BF1B
:103C00003861786901437160356009F00705FFF795
:103C1000A5FC15B100F017F8FEE74846BDE8F283B1
:103C2000B8688642F3D00A683068086002F1080973
:103C30007268121B112ADCD3311911F00700D2D09F
:103C400000F001F8FEE788F31188BFF34F8FBFF350
:103C50006F8F7047002800D1704738B5A0F1080475
:103C6000234D61686A695023114202D100F015F8B2
:103C7000FEE7206810B100F010F8FEE791436160A4
:103C8000FFF766FCE96860684118E960204600F0CB
:103C90000BF8BDE83140FFF761BC83F31188BFF337
:103CA0004F8FBFF36F8F704730B511490A4600E060
:103CB0001A4613688342FBD35368D418844203D155
:103CC0004068C3185360104643681468C518A5427D
:103CD00008D189688C4204D06168CB18436024689D
:103CE00000E00C460460824218BF106030BD000046
:103CF000DC16002062F30F2262F31F4200B500BF02
:103D0000130096469446103928BFA0E80C50FAD804
:103D10005FEA417C28BF0CC048BF40F8042BC907AC
:103D200028BF20F8022B48BF00F8012B00BD4FF040
:103D3000FF3200F1080182604160C16000F10802B9
:103D4000026100210160704700210161704710B5D8
:103D500042684A6093688B60946861609160086112
:103D60000168491C016010BD30B50A6812F1010FED
:103D700008BF036907D000F1080300E023465C6830
:103D80002568AA42FAD25A684A6091608B605960ED
:103D900008610168491C016030BD4368016982689F
:103DA0009A60836842685A604A68824204BF8368A6
:103DB0004B60002202610868401E08600868704776
:103DC000490810B54900A0F120034FF080749961B3
:103DD0001A60DC616FF002020FF20D01596140F8C8
:103DE000242D203810BD00005B494A68502012F194
:103DF000010F80F31188BFF34F8FBFF36F8F00D097
:103E0000FEE7FEE77CB5554A554B106850219842B5
:103E100002D100F0B3F8FEE71068524B984202D18D
:103E200000F0ACF8FEE7504B1C780194FF251D70A4
:103E300007251E78484C8DF800609DF80000A560AD
:103E400000F05000207006E0401EA0609DF80000C9
:103E500040008DF80000A0689DF800502E06F3D4B5
:103E6000C0F10705042D02D000F088F8FEE700023B
:103E700000F4E060A06001981870116A41F47001CC
:103E80001162106A40F07040106200F07FF800206C
:103E9000606000F0DDF83548016841F040410160A4
:103EA00000F0C6F8002076BD502080F31188BFF3E3
:103EB0004F8FBFF36F8F28494A68521C012A4A600E
:103EC0000AD12B490A68130606D080F31188BFF384
:103ED0004F8FBFF36F8FFEE770471F49486838B9AF
:103EE000502080F31188BFF34F8FBFF36F8FFEE731
:103EF000401E486008BF80F31188704780B550208D
:103F000080F31188BFF34F8FBFF36F8FFFF773FB01
:103F100018B117494FF080500860002282F31188D1
:103F200001BD000010B5EFF30580502110280A4AAA
:103F300007D3104B185C1478A04202D200F01EF890
:103F4000FEE790680C4A136803F4E063984202D2DB
:103F500000F014F8FEE710BDE415002000ED00E0CD
:103F600071C20F4170C20F4100E400E034EF00E085
:103F700004ED00E0F0E300E00CED00E081F31188D7
:103F8000BFF34F8FBFF36F8F704700000748084B98
:103F90000021016081604FF47A721968B1FBF2F27E
:103FA000521E426007210160704700BF10E000E030
:103FB000101600207047002070470000EFF30980C2
:103FC000BFF36F8F264B1A681EF0100F08BF20ED4D
:103FD000108A20E9F04F106009B44FF0500080F3D0
:103FE0001188BFF34F8FBFF36F8FFFF764FB4FF064
:103FF000000080F3118809BC19680868B0E8F04F28
:104000001EF0100F08BFB0EC108A80F30988BFF3D0
:104010006F8F7047124B19680868B0E8F04F80F353
:104020000988BFF36F8F4FF0000080F3118870474D
:104030000C480068006880F308884FF0000080F3A7
:10404000148862B661B6BFF34F8FBFF36F8F00DF86
:10405000DFF81400016841F470010160704700004E
:104060005428002008ED00E088ED00E038B5040099
:1040700009D004F17005697809B900F028F800F05A
:104080000DF8012801D1012032BD606A08B100F0AD
:1040900023F800F014F821F02A0109E024216970C6
:1040A00020680268520852000260204600F016B9EB
:1040B000816000F014F8BDE8324000F0A0BA20683A
:1040C000416821F490414160206881687047002078
:1040D0002870204600F08ABB204600F02DBA2068E8
:1040E000016841F0010101602046704730B500F1E0
:1040F00058039C7E202C44D109B1140001D1012029
:1041000030BD1C7E012C3CD001251D7641651A80F6
:104110005A8000219960FF228168B1F5805F04D147
:10412000016969B940F2FF120AE019B9016939B1B0
:104130007F2108E0B1F1805F06D1016911B97F22CA
:104140009A8001E03F2199800022DA61222199764C
:1041500001688A6842F001028A608168B1F5805F77
:1041600004BF0169002907BFDFF894239A60DFF8D4
:104170009413996000221A760068016841F49071E6
:1041800001E0022030BD0160002030BD70B5044662
:104190002568E9692A68AB6811F00F000AD1880622
:1041A0006DD596066BD5216E002967D02046BDE8F7
:1041B00070400847D80702D412F4907F5FD0C80738
:1041C00007D5D60505D501202862656F45F00105A4
:1041D0006567880708D5DD0706D5266802203062A6
:1041E000606F40F004006067480708D5DD0706D51A
:1041F000266804203062606F40F0020060670807A4
:104200000AD5950601D4D80706D5256808232B6260
:10421000606F40F008006067606F002857D0880624
:1042200005D5910603D5216E09B120468847606FF8
:10423000010703D42068816848061AD5204600F09B
:104240003DFA206881684A060ED500F041F858B161
:104250000FF289418163E06E00F028FBB8B3E06E95
:10426000816BBDE8704008472046BDE8704000F013
:1042700042BB204600F03FFB0020606770BDC802D3
:1042800009D55B0207D54FF4801028622046BDE8AF
:10429000704000F031BB080607D5130605D5616EE6
:1042A000A9B12046BDE87040084748060FD5510621
:1042B0000DD5286820F040002860202184F8711076
:1042C000002060662046BDE8704000F016BB70BD5F
:1042D000816821F040018160E06E70472DE9F04176
:1042E000044689482268DFF824E21368A168034085
:1042F00020690B4361690343E0690B430343136087
:1043000010275168E06821F44051014351600026B4
:104310000025A3697E498A421CBF206A0343906836
:1043200020F430600343936072457A487A4B21D180
:104330001B6803F00303032B41D8DFE803F0023DC1
:10434000293F0127E169B1F5004F4FF6F07840F0C1
:10435000A78067B1012F00F07D80022F00F07D80E3
:10436000042F00F07F80082F00F085808BE000F0A4
:10437000C3FD79E0DFF8A4C162450BD11B6813F0DF
:104380000C0317D0042B17D0082B01D00C2B0FE0F7
:10439000022714E08A4212D11B6813F4406309D04B
:1043A000B3F5806F08D0B3F5006FF1D0B3F5406F6F
:1043B00004D004E0002702E0042700E008278A4236
:1043C000C0D1390006D0022F08D0042F0FD0082FFB
:1043D00010D08DE000F090FD00283AD0626802EB2A
:1043E0004201884202D31303834206D280E000F0E8
:1043F00035FDF1E74FF40040F0E737B1022F0AD066
:10440000042F0ED0082F16D01BE000F075FD00F031
:104410008DF879410AE0424911EB520045EB050164
:1044200004E000F01BFD00F081F869410023FEF775
:10443000DFF9064606E0530803F50003B3FBF2F686
:1044400000E00125A6F540703649884250D2226826
:10445000D6604EE000F058FD06E06068324901EB9E
:1044600050010CE000F0FAFC61684A0802EB4002DF
:10447000B2FBF1F605E06068410801F58031B1FB5F
:10448000F0F6B6B200E00125A6F1100040452FD2AB
:1044900008EA0601C6F3420001432068C16028E033
:1044A00047B1012F09D0022F0CD0042F08D0082FBC
:1044B0000ED015E000F020FD04E000F025FD01E045
:1044C00000F0CCFC616800EB5100B0FBF1F605E0B8
:1044D0006068410801F50041B1FBF0F6B6B200E0BA
:1044E0000125A6F11000404502D22168CE6000E00F
:1044F00001250020206660662846BDE8F0810000A6
:104500004B470008ED460008F369FFEF0038014013
:10451000008000400024F400881002400044004065
:10452000000024F400FD0F000048E8016268010E5D
:10453000560816EB0020704790F82410CA0706D5DD
:1045400002685368816A23F400330B43536090F888
:1045500024108A0706D502685368C16A23F48033A1
:104560000B43536090F824104A0706D5026853683D
:10457000016B23F480230B43536090F824100A0747
:1045800006D502685368416B23F400430B43536024
:1045900090F82410CA0606D502689368816B23F44C
:1045A00080530B43936090F824108A0606D5026866
:1045B0009368C16B23F400530B43936090F824106D
:1045C0004A0610D502685368016C23F480130B432C
:1045D0005360036CB3F5801F05D15368416C23F41D
:1045E000C0030B43536090F824100A0606D50168F7
:1045F0004A68806C22F4002202434A607047F8B592
:10460000044604F17005002068606FF07E4700F0FA
:10461000F9FC0646206801680A0708D5009733466A
:1046200000224FF40011204600F016F860B920680F
:1046300001684A070AD50097334600224FF48001EB
:10464000204600F009F808B10320F2BD2020687070
:10465000A87000202870F2BD2DE9F041069C0546A7
:104660000E4690461F462868C1693140B1420CBFD2
:1046700001200020404518D114F1010FF3D024B1DE
:1046800000F0C0FCC01B8442EDD22868016821F410
:10469000D071016000F00CF805F17000202141702C
:1046A000817000210170032000E00020BDE8F0814E
:1046B00028688168490849008160704701680A6874
:1046C00022F490720A6001688A68520852008A6077
:1046D000202180F87210002202667047806A00F183
:1046E000520100220A810A8000F005B970B500F17C
:1046F0005A0200F16001538804688D7C222D18D184
:10470000A48C456D6E1C466523402B7013885B1E80
:1047100013809BB28BB90268136823F4907300F086
:104720000DF820228A7400230B60BDE8704000F071
:1047300087B8208B40F00800208370BD13600268AA
:1047400093685B085B009360704738B500F16002C6
:104750000168937C222B20D18B8C456D00F15A048B
:1047600061880B402B80416D8B1C43652588691E39
:10477000218089B2A9B901680B6823F490730B609A
:1047800001688B685B085B008B60202191740023BB
:104790001360BDE8324000F053B8088B40F00800C9
:1047A000088331BD30490968CA691306FCD5C2B215
:1047B0000A85704780B52C482C4901604FF4165289
:1047C00000230C2142608360C36003614161836107
:1047D000C36103624362FFF749FC30B1BDE80440A6
:1047E0005FF05B0123A000F09DBC01BD00681F4984
:1047F000884200D0704780B51D4886B0026842F4F8
:10480000003202600C21006800F4003000900222A7
:104810000098019102920021039103220721059142
:10482000049201A94FF0904000F07EFC0022042188
:10483000262000F065FD262000F07FFD07B000BDBA
:1048400000680A49884200D0704710B5064C04F150
:10485000780000F0A9FD04F178012046BDE8104081
:104860000122FFF743BC00005C2900200044004007
:1048700058100240463A5C53797374656D5C446F1E
:1048800063756D656E74735C437562654D585C4C01
:1048900034333254657374315C436F72655C5372A8
:1048A000635C75736172742E6300000038B500F1AB
:1048B000240100244A78022A03D0042088610124BC
:1048C00017E00268136823F00E031360026815688E
:1048D0006D086D001560012291F82030CD6903F05C
:1048E0001C039A406A6001224A700C70496901B148
:1048F0008847204632BD7047704770472DE9FC4716
:10490000040019D0DFF8C476DFF8CC56B868FE682A
:1049100000F00C082078C10606F0030651D5B8F166
:10492000000F04D0B8F10C0F08BF012E2BD138684E
:10493000810703D5A069002800F042813968080783
:104940004EBF396869680909206A01F0F0018142A7
:1049500006D200F000FB002808D100F0E4F907E0DF
:1049600000F0E1F9206A00F0F6FA002840F0288112
:1049700000F074FABA6800F066FA00F029FD010050
:1049800000F00D81CDE1A06990B1396841F00101DD
:10499000396000F037FB81463868810700F1FD80FF
:1049A00000F030FBA0EB09000328F5D30320B8E1A9
:1049B000386840084000386000F024FB81463868C1
:1049C000810740F1EC8000F01DFBA0EB09000328FB
:1049D000F5D3EBE76068B0F5803F04D1386840F468
:1049E0008030386011E0B0F5A02F386806D140F46F
:1049F00080203860396841F4803105E020F480304F
:104A00003860396821F480213960606868B100F04D
:104A1000F9FA81463868810300F1D48000F0F2FA97
:104A2000A0EB09006528F5D3C0E700F0EBFA81465A
:104A30003868810340F1C68000F0E4FAA0EB090079
:104A40006528F5D3B2E700F0DDFA801B0328C0F03B
:104A5000E080ABE7E06880B1396841F4807139608B
:104A600000F0D0FA06463868410500F1BD8000F03C
:104A7000C9FA801B0328F6D398E7386820F48070C1
:104A8000386000F0BFFA06463868410540F1B3804F
:104A900000F0B8FA801B0328F6D387E740084000EF
:104AA000686000F0AFFA06466868810740F1B5809B
:104AB00000F0A8FA801B0328F6D377E705282868BA
:104AC00006D140F004002860296841F0010105E0AA
:104AD000400840002860296821F004012960A0688E
:104AE00041F2893968B100F08DFA82462868810761
:104AF00000F1C78000F086FAA0EB0A004845F5D324
:104B000054E700F07FFA82462868810740F1B980B7
:104B100000F078FAA0EB0A004845F5D346E700F02C
:104B200071FA801B0328C0F0BF803FE740084000B7
:104B3000A86000F067FA0646A868810740F1B880CF
:104B400000F060FA801B0328F6D32FE700F05AFA32
:104B5000401B0328C0F0BB8028E700F053FA001B7D
:104B60000328C0F0D98021E73968080103D4F96827
:104B700089088900F960F968DFF860040140F9608C
:104B800000F040FA04463868810140F1C98000F025
:104B900039FA001B0328F6D308E700F0C4F82078A0
:104BA000C1070FD5B8F1080F05D0B8F10C0F08BF39
:104BB000032E7FF40FAF3868810303D5606808B90E
:104BC0000120AEE02078810715D5B8F1040F05D09B
:104BD000B8F10C0F08BF022E7FF43CAF38684105D6
:104BE00002D5E0680028EBD07868216920F0F85001
:104BF00040EA01607860207801070ED560690028DE
:104C000068683FF44BAF40F00100686000F0FAF9CB
:104C10000646686881077FF516AF2078410735D5CD
:104C2000B86D0026C10009D4B86D40F08050B86559
:104C30000126B86D00F0805000900098DFF8A09336
:104C4000D9F80000C10513D4D9F8000040F48070F1
:104C5000C9F8000000F0D6F98246D9F80000C10575
:104C600006D400F0CFF9A0EB0A000328F5D39DE6A7
:104C7000A06801287FF422AF286840F00100286076
:104C80002DE71EB1B86D20F08050B8652078810600
:104C90000ED5606A0028A8683FF448AF40F00100D4
:104CA000A86000F0AFF90646A86881077FF537AF26
:104CB000A06AA8B3B8F10C0F82D00228386820F09F
:104CC000807038607FF450AF00F09CF9054638687A
:104CD00081013FF53BAF206B616B401E090241EA49
:104CE0000011E26BE06A52080143206C521E40083A
:104CF00041EA4251401E41EA4061A06B41EAC06175
:104D0000F960396841F080713960F86840F080706E
:104D1000F86000F077F90446386881017FF51DAF2F
:104D20000020BDE8F687386840F008003860396830
:104D3000206A21F0F001014339607968E06921F4CB
:104D40007F4141EA0021796070472DE9F04104007C
:104D5000884676D0DFF88C62306800F00700404566
:104D600009D23168C90848EAC1013160306800F0F1
:104D70000700404565D12078DFF85052C10748D57B
:104D80006068032802D129688A0108E0022802D15C
:104D900029688A0303E00028296802D18A0702D41F
:104DA0004FE04A054DD5A968890840EA8100A8600E
:104DB00000F028F90746A868616800F00C00B0EB25
:104DC000810F26D000F01EF9C01B41F289318842C4
:104DD000F1D303201BE02078410705D5AA68E068DD
:104DE00022F4E0620243AA602178080706D5A96888
:104DF000206921F4605141EAC001A96000F02EF859
:104E0000AA6800F020F8BDE8F04100F0E1BABDE882
:104E1000F0812078810705D5AA68A06822F0F00209
:104E20000243AA60316801F007018845D3D2306897
:104E3000C00848EAC0003060316801F00701414510
:104E4000C9D00120E3E76849C2F30312895C604AD4
:104E500001F01F01C84010600020704710B55B4A88
:104E60009068D4680023002110F00C0004F00304C3
:104E700003D00C2812D1012C1AD113681C0704D4BA
:104E8000544B1C68C4F3032302E01368C3F30313F9
:104E9000574C54F8233048B9194628E0042808BF75
:104EA000544924D0082822D1534920E00C281ED18F
:104EB000D168D068C0F30210401C01F00301022940
:104EC00002D0032902D005E04A4900E04A49B1FB7B
:104ED000F0F101E0B3FBF0F1D068C0F306204143EC
:104EE000D068C0F34160401C4000B1FBF0F10846BF
:104EF00010BD37480068704735483C4A0068136861
:104F00003E49C3F3022206E03148384A006813687C
:104F10003A49C3F3C222895C01F01F01C8407047BF
:104F200010B50F220260314A136803F00303436097
:104F3000146804F0F0048460136803F4E063C36051
:104F40001268D20802F4E06202612648026802F0A8
:104F500007020A6010BD7CB5294E05463068002462
:104F6000C10002D500F070FA0EE0306840F08050C9
:104F70003060316801F080510091009800F064FACF
:104F8000316821F080513160B0F5007F04D1802D6F
:104F90000CD9A12D09D304E0802D88BF032405D8A6
:104FA00001D1022402E0702D00D101240D480168D6
:104FB000C90844EAC1010160006800F00700A0428E
:104FC00001D0012076BD002076BD00000010024017
:104FD000101600209410024090100240FFFFEEFED9
:104FE0000070004000200240E87B000808100240EA
:104FF000F87B00080024F40000127A00547D0008B9
:105000005810024001480068704700BF402B002044
:1050100080B500F05DFA00F01BF800F069FA00F0CE
:10502000A7FAFFF7C7FB00F015FB00F07DFB01229C
:1050300037493848FFF75AF800F0E0FD1222002304
:10504000002000F054FE00F073FE01F071F8FEE75E
:1050500000B5ABB001F0FAF82F48016821F0180153
:105060000160142205920121602207910B910D929B
:10507000002101220C9110921192022128220F91FD
:1050800012920721022213911492159205A8FFF79C
:1050900035FC00B1FEE70F200321009001910022B2
:1050A00002920392049204216846FFF74EFE00B17B
:1050B000FEE700221F9221924FF480721749169149
:1050C0002A9216A801F0CAF800B1FEE74FF400706A
:1050D00000F0C0F900B1FEE7FFF70BFF4FF47A7163
:1050E000B0FBF1F000F033F9042000F044F901F0D6
:1050F000D0F900220F214FF0FF3000F001F92BB062
:1051000000BD00680649884208BF01F05BBA7047DD
:10511000D42900205C2900209010024042000200A7
:10512000002C0140FEE700002DE9F84702460B463F
:105130000026DFF884814FF00F0933E05F4FBA4259
:1051400014BF072702278F40274345F82E70C74317
:105150005B490C6807EA040C5C68E40348BF40EA5A
:105160000C0CC1F800C04C6807EA040C5C68A4038E
:1051700048BF40EA0C0CC1F804C08C6807EA040C74
:105180005C68E40248BF40EA0C0CC1F808C0CC6877
:1051900007EA040C5F68BC0248BF40EA0C0CC1F887
:1051A0000CC0761C186830FA06F173D00127B7409E
:1051B0003840F6D05C68B100022C18BF122C11D117
:1051C000F40802EB840C01F01C04DCF820E0D3F8B6
:1051D00010A009FA04F52EEA05050AFA04F42C4396
:1051E000CCF820404FEA460C0325146805FA0CF56C
:1051F0006FEA050E1D7905F003050EEA040405FAB1
:105200000CF52C4314605C68012C18BF022C03D0F1
:10521000112C18BF122C10D19468DD680EEA04041A
:1052200005FA0CF52C439460546824EA07075C687F
:10523000C4F30014B44027435760D7680EEA07044C
:105240009F6807FA0CF52C43D4605C68E700A8D58A
:10525000D8F800401B4D44F00104C8F800404FEA64
:10526000960ED8F8007007F00107009701F00C01C6
:10527000009F55F82E7009FA01F427EA0404B2F1F0
:10528000904F08BF002704D00F4FBA427FF456AFAB
:10529000012758E7BDE8F1870069084018BF0120E1
:1052A000C0B270470AB1816170478162704742693C
:1052B0005140416170470000601002400008004802
:1052C00000040140080001400004004809010200F8
:1052D00006D52F4A00F00F00104400F8041C704758
:1052E0002C4B195470472C4B19684FF6FF020002E3
:1052F000114000F4E06008432849084318607047F3
:1053000038B5254B1C68C4F30223C3F10704052CF0
:1053100028BF04241D1D072D34BF0023DB1E0125DB
:1053200005FA04F4641E2140994005FA03F35B1E5C
:105330001A401143BDE83440C8E7012200F01F01C4
:10534000174BFFE78A40400943F82020704710B50B
:10535000401EB0F1807F01D3012010BD114C606070
:105360000F214FF0FF30FFF7B1FF0021A1600720B0
:105370002060002010BD04280A4904D1086840F0CC
:105380000400086070470A6822F004020A6070474F
:1053900018ED00E000E400E00CED00E00000FA058C
:1053A00000E100E010E000E00EB4C0B5024603A842
:1053B00000210190009101AB0121044878440C3098
:1053C000FCF7E4F806BC5DF810FB00BF49290000BB
:1053D00018B5014687B000221920FFF791FF192068
:1053E000FFF7ABFF1448154C016841F40061016000
:1053F00001A9006800F400600090009802A8FFF77F
:105400008FFDFFF781FD0E490E4B2160B0FBF3F0DD
:10541000401E40F2E73260600021E2602161A1603D
:10542000204601F0D7F818B9204601F0E0F800E076
:10543000012008B010BD000060100240742A002056
:10544000002C014040420F00DFF87800006800F4B3
:10545000C060704710B5DFF86C10B0F5007F0868C9
:1054600000F4C06015D1B0F5007F1BD00868DFF8EC
:105470005820DFF8584020F4C06040F4007000F07D
:1054800018F84A6953050FD5002818BF401EF8D1F7
:105490000AE0B0F5806F05D0086820F4C06040F4E1
:1054A00080600860002010BD48694105FAD50320DE
:1054B00010BD0860322013684343B3FBF4F0401C76
:1054C00070470000007000401016002040420F009E
:1054D000032010B5FFF707FF0020FFF779FF002436
:1054E000002814BF012401F037FA204610BD000047
:1054F00080B51B4886B0016841F004010160026874
:1055000002F0040200920099026842F00102026077
:10551000036803F0010300930099026842F002025D
:1055200002600122006800F0020000904FF4E06188
:1055300000984FF09040FFF7B5FEF1210191002255
:105540000121039100F00EF84FF4E0610191012276
:1055500000210391049100F005F807B000BD0000A0
:105560004C100240029201A94FF09040FFF7DCBDC1
:1055700038B5264C2648274929A52060002201205D
:10558000E0606160A26022616261A261E261226208
:10559000204601F027FA18B14C212846FFF7C2FD3A
:1055A0000021204601F0E2FB18B153212846FFF705
:1055B000B9FD0021204601F0EEFB28B12846BDE8E8
:1055C00034405A21FFF7AEBD31BD00681049884212
:1055D00000D0704700B585B0C02200921221019121
:1055E00001220292032103910422049269460A488F
:1055F000FFF79AFD0948016841F400110160006855
:1056000000F400100090009805B000BD282A00208A
:1056100000540040912980000004004858100240C6
:10562000463A5C53797374656D5C446F63756D6560
:105630006E74735C437562654D585C4C3433325400
:10564000657374315C436F72655C5372635C69327D
:10565000632E63004FF0804030B5244C25A52060B8
:10566000592131200022E0606160A2602261A261C4
:1056700087B0204600F0AEFF18B149212846FFF759
:1056800051FD4FF48050039003A9204601F08BF8A0
:1056900018B14F212846FFF745FD002100910291E6
:1056A0002046694601F0A2FB18B156212846FFF7B3
:1056B00039FD07B030BD0068B0F1804F00D07047B1
:1056C00080B50B48016841F00101016000220068CB
:1056D00000F001000090052100981C20FFF710FE4B
:1056E000BDE802401C20FFF728BE0000B42A0020BD
:1056F00058100240463A5C53797374656D5C446F90
:1057000063756D656E74735C437562654D585C4C72
:1057100034333254657374315C436F72655C537219
:10572000635C74696D2E63002C4838B52C4C00BF47
:105730002DA520600021FF207F22E0606160A26033
:1057400021616161A161E16186B0204601F076FBD3
:1057500010B14E2100F035F825218DF805101620E6
:10576000492200218DF804008DF80620049105914E
:10577000012201A9204601F0B8FB10B15A2100F026
:1057800020F8012111228DF800108DF80120192137
:1057900018228DF802108DF8032069460122204658
:1057A00001F038FC10B1642100F00BF80022002158
:1057B000204601F013FD10B16B2100F002F807B094
:1057C00030BD2846FFF7AEBC00680449884204D1CA
:1057D0000448026842F4004202607047002800401A
:1057E000F42A002090100240463A5C5379737465A5
:1057F0006D5C446F63756D656E74735C4375626553
:105800004D585C4C34333254657374315C436F7261
:10581000655C5372635C7274632E630070B5002420
:10582000354DA4F1500000F0B4F90021002000F043
:10583000CAF900F0B2F9002632062819120D4021EB
:10584000805C00F0C0F9761CF0B25828F4DB641CD0
:10585000102CE6DB70BD2DE9F54F81B088460D9C1C
:105860009A464FF0000901E009F101099DF8300066
:10587000B9EBD00F21DA002604E0621E9241D20F6C
:1058800011E0761C5645EFDA02989DF804B05146B7
:1058900009FB01610025475CB34408EBC9016918A5
:1058A000F807EAD52246C9B25FFA8BF000F007F894
:1058B0007F086D1C082DF0DBE3E7BDE8F78F582863
:1058C00000DB704770B50B46802B13DA9D0803EBA5
:1058D0005576F6080124A3EBC60304FA03F3064C3D
:1058E000C90804EB0010002A445C14BF234324EAD7
:1058F0000303435470BD0000AC2200202DE9F84F93
:10590000202A8B463BD1DDF82880DFF8DC928DF829
:10591000010000248DF8003000259DF800009DF85E
:1059200001603038800200EBD070401061018210BD
:1059300001EBD17100EB5270491001EBE0016918E5
:10594000002719F801A0AE190BEBC40179185FEA22
:10595000CA7048BF424603D4B8F101029241D20F47
:10596000C9B2F0B2FFF7ABFF7F1C082F4FEA5A0A0B
:10597000EADB6D1C202DD0DB641C042CCCDBBDE8E5
:10598000F18F2DE9F64F0E2A83B08846DFF85C527E
:1059900002D0102A17D055E01C240294642205F589
:1059A000257405F53275019500250E9995424CDA5E
:1059B000675D9F4202BF67197E788E421CBFAD1C97
:1059C000EDB2F3D141E02024029428222C46143574
:1059D000E9E7761CF6B29DF8104000F095F818BF84
:1059E000012000EBD40086422CDA002504E07A1E68
:1059F0009241D20F19E06D1CA542EADA9DF8002011
:105A0000029B01999DF801A014FB06F003FB020222
:105A1000AA184FF0000911F802B0AA4408EBC60119
:105A20005FEACB704944E2D53A46C9B25FFA8AF0E0
:105A3000FFF745FF09F10109B9F1080F4FEA5B0BC8
:105A4000ECDBD8E705B0BDE8F08F05EBD5756D1040
:105A50000F9F8DF8005000268DF80100BBE72DE95F
:105A6000F14F82B08946DDF830A00093144600263D
:105A700001E0761CF6B200F047F818BF012000EBF9
:105A8000D40086423EDA4FF0000824E0BAF1010269
:105A90009241D20F13E0300100F03DF8401000EBCE
:105AA00002104044084490F834539DF808B0002791
:105AB000C34409EBC6017918E807E7D55246C9B2D5
:105AC0005FFA8BF0FFF7FBFE2D066D0E7F1C082F93
:105AD000EFDB08F10108B8EB540FCADA0E2C02D044
:105AE000102CD8D0E1E70E2010FB06F000F013F8E0
:105AF0000E23401003FB020040440844A0F5E0716F
:105B00000D78D2E7BDE8F78FA10804EB5172D208F7
:105B1000B4EBC2007047009ADFF8D41000EBD070ED
:105B200070472DE9FC41089C05460E4690461F46ED
:105B300009E00094424617F8013B3146E8B2FFF70E
:105B40008EFF05EB58053B7873B1A3F120005F2869
:105B5000EFD301944246787800903146E8B2FFF7DF
:105B600010FF4544BF1CEEE7BDE8F38110B50446C5
:105B70000846503800F00DF82009002140F01000D0
:105B800000F021F804F00F00BDE81040002100F003
:105B90001AB80021C0B200F016B80021102000F0A1
:105BA00012B830B50020DFF84C1000250022140692
:105BB0000B18240D521C1D55D3B2582BF7DB401C7B
:105BC0001028F3DB30BDE0B58DF805008DF804102A
:105BD0004FF6FF700090022301AA7821064800F0DA
:105BE00059FF07BD0000000000000020A40D0020A8
:105BF00080020020AC220020282A002080B54FF42B
:105C0000487001F050FB0021AE20FFF7DCFF0021BF
:105C10000020FFF7D8FF00211020FFF7D4FF00215C
:105C2000B020FFF7D0FF0021D520FFF7CCFF0021E7
:105C3000B120FFF7C8FF00212020FFF7C4FF00219B
:105C40008120FFF7C0FF0021FF20FFF7BCFF0021EC
:105C5000A020FFF7B8FF0021A420FFF7B4FF002128
:105C6000A620FFF7B0FF0021A820FFF7ACFF00211E
:105C70005720FFF7A8FF0021DC20FFF7A4FF002139
:105C80000020FFF7A0FF0021D320FFF79CFF002199
:105C90006C20FFF798FF0021AD20FFF794FF002153
:105CA0008020FFF790FF0021C020FFF78CFF00212C
:105CB000D920FFF788FF00212220FFF784FF002171
:105CC000DB20FFF780FF00213F20FFF77CFF002152
:105CD000AF20FFF778FF0021AF20FFF774FFFFF739
:105CE00060FFBDE8044000210020FFF73FBF78B50A
:105CF00085B0064614461D4601F02AFB002101919D
:105D00003F2203920121049100220092694601A8DA
:105D100001F09CFB06F1006622462B4606F5FC319D
:105D2000002001F0CFFA01F023FB06B070BD0000A7
:105D300010B590B00BA80FF2B031DFF84043142239
:105D4000FCF712FD00210BA800F0F7F9E060142227
:105D500006A80FF2A831FCF707FD01A80FF2B03139
:105D60001422FCF701FD0FF234300168009106A8FF
:105D7000002100F0E2F96060002101A800F0DDF9E7
:105D800060600121684600F0F6F9A06010B010BD17
:105D900080B54FF4FA7000F0E7F94FF4806100F03D
:105DA00065F8F6E710B5B54C01E00022227000F06E
:105DB00061F880B1102100F05EF860B1012100F0BF
:105DC0005AF840B1402100F056F820B1202100F0EF
:105DD00052F80028E9D10A2000F0C6F900F04AF88C
:105DE00018B900F041F801201EE0102100F043F83E
:105DF00018B900F039F8022016E0012100F03BF854
:105E000018B900F031F803200EE0402100F033F81B
:105E100018B900F029F8042006E0202100F02BF842
:105E200020B900F021F80520207001E00021217048
:105E3000A06800F0DAF900F01DF80028FBD010216E
:105E400000F019F80028F6D0012100F014F800281D
:105E5000F1D0402100F00FF80028ECD0202100F014
:105E60000AF80028E7D0A2E74FF480714FF0904085
:105E7000FFF71DBA80214FF09040FFF70DBA0000E8
:105E80002DE9F84F86B0192000F06EF9FFF7ECFF0E
:105E90005FF001040FF2102B0FF2142A86A5DFF831
:105EA000E0810FF21C29754F0A2627E0012000909F
:105EB0004B4600F098F800F09BF808F5006208E007
:105EC000012000902B4600F08EF800F091F808F5C4
:105ED000C06219210B20FFF7BEFC01A8142101F0BC
:105EE0006BFB224664A101A801F06AFB00F0D0F828
:105EF0006E210020FFF715FEFFF790FCB8684FF009
:105F0000FF3100F04BF93A78601E611C012A40B263
:105F100049B206D0022A0CD0042A11D0052A21D079
:105F20002CE0002C1CD40A2C28DA002818DC0424CD
:105F300024E0002C21D40A2C20DA04291DDD13E0F2
:105F4000002C1BD40A2CB8BF644212DB642C15DA77
:105F50000A2194FBF1F106FB11440CB94CB20DE09F
:105F600004460BE0002C01D5012407E00A2C02DADC
:105F7000744364B202E0642C00DA0C46FFF711FEB1
:105F8000601D0A28A9D8DFE800F0090909090906F7
:105F90000E1A24080700A0E788E791E76042C0B224
:105FA00000F02CF899E70120009010223CA35F211B
:105FB0001720FFF7B6FD00F01BF8424689E70120E5
:105FC00000905B4600F00FF800F012F808F5007240
:105FD0007FE701200090534600F005F800F008F834
:105FE00008F5806275E710225F211720FFF799BD41
:105FF000012040210190009140237047F8B50446EC
:10600000204E214D86B000222946304600F0E4FFA4
:106010001E4F00223946304601F055F801A81421E0
:1060200001F0CAFAB878FA7897F8013026A1009002
:1060300002F5FA6201A801F0C3FA00F029F8002184
:106040000020FFF76EFDA8786B782A7822A10090D7
:1060500001A801F0B5FA0120009004F130032022DC
:1060600000210020FFF74AFC00F012F81021002068
:10607000FFF757FD07B0F0BD253464002C2B00203E
:106080008C010008F42A0020182B00203C2B002053
:106090000120009001AB10227047000000000000BA
:1060A000B2A620BAC5000000D3B020D2F400000090
:1060B000CBD120CBF7000000D3CE20CFB70000001B
:1060C000C9E820D6C30000002534642E2530326490
:1060D0002E25303264000000253032643A253032FB
:1060E000643A253032640000F87C0008915D0008B5
:1060F000000000000000000080000000047D000897
:10610000A55D000800000000000000008000000005
:106110000C7D0008815E0008000000000000000007
:106120008000000001460020842918BFC81C704769
:1061300080B5FDF7DDF9002002BD3EB504460D46F1
:10614000B4F90800FFF7EEFF02A9019100902B4679
:1061500022692168606892B2FDF7E6F8012801D053
:1061600000203EBD02983EBD80B500B90120FDF77C
:106170009BF9002002BD10B501290DD10322002199
:10618000012001F079FA040004D00023002200214C
:1061900001F09DFA204610BD002010BD80B5002200
:1061A000009208B9802002BD11F1010F08BF4FF025
:1061B000FF3200F014F859B16A46002101F015FCD5
:1061C00001280AD1009808B100F02AF8002002BD89
:1061D000114601F05BFB0128F8D0FF2002BD01D081
:1061E00001B10A46EFF3058170471CB50024009405
:1061F000EFF3058149B1694601F001FB01280DD19A
:10620000009848B100F00CF806E00023002201F0ED
:106210005EFA012818BFFF24204616BDFF2016BDD8
:10622000DFF824004FF080510160BFF34F8FBFF3C0
:106230006F8F704780B5FDF73AFB012803D0BDE8AA
:106240000140FDF75BBE01BD04ED00E002480168BE
:1062500041F4807101607047007000402DE9FC47F7
:10626000054600242868DFF840630105A1461BD5D8
:10627000E86B58B1B0F5000F03D0B0F5400F09D06E
:1062800010E0326842F48032326004E0002100F015
:10629000FEF804463CB9F16FE86B21F4400101437C
:1062A000F16701E00124A146286881032BD5F06C39
:1062B000C1004FF000080AD4F06C40F08050F06448
:1062C0004FF00108F06C00F0805000900098DFF86B
:1062D000DC72386840F480703860FEF793FE8246C6
:1062E0003868C10500F1AB80FEF78CFEA0EB0A0018
:1062F0000328F5D30324A146B8F1000F03D0F06CB6
:1063000020F08050F0642878C10705D5F26F286A24
:10631000920840EA8202F2672978880705D5F16F72
:10632000686A21F00C010143F1672978880605D5D8
:10633000F16FA86A21F440610143F167296888057B
:1063400005D5F16F686B21F440210143F16729689D
:10635000480505D5F16FA86B21F440110143F167A1
:106360002978480605D5F16FE86A21F440510143C8
:10637000F1672968C80505D5F16F286B21F4403114
:106380000143F1672968880420D5F16F286C21F05A
:1063900040610143F167286CB0F1006F0ED13068A5
:1063A00040F48010306011E0FEF72CFE001B41F23B
:1063B0008931884260D34FF003099DE7B0F1806FC7
:1063C00004D100F063F8010018BF8146286841033A
:1063D00016D5F26F686C22F040620243F267686C77
:1063E000B0F1006F04D1306840F48010306007E0F5
:1063F000B0F1806F04D100F049F8010018BF814668
:10640000286841040FD5F26FA86C22F04052024375
:10641000F267A96CB1F1805F05D1022100F037F875
:10642000010018BF81462868010405D5F26FE86CA9
:1064300022F080420243F2674846BDE8F687002C0E
:106440007FF459AFDFF86871386810F440701CBFF2
:10645000296D88420BD03868396841F48031396041
:1064600020F440703A6822F480323A603860C00705
:1064700005D5FEF7C7FD04463868810794D53A680C
:10648000286D22F4407202433A6035E70121281D4D
:1064900006E0DFF82001016841F004010160704767
